{"contracts/solidityfile6.sol":{"SolidityFile6":{"abi":[{"inputs":[{"internalType":"address","name":"nftFloorPriceConsumerAddress","type":"address"}],"stateMutability":"nonpayable","type":"constructor"},{"inputs":[{"internalType":"address","name":"nftAddress","type":"address"},{"internalType":"uint256","name":"tokenId","type":"uint256"}],"name":"AlreadyStaked","type":"error"},{"inputs":[{"internalType":"address","name":"nftAddress","type":"address"},{"internalType":"uint256","name":"tokenId","type":"uint256"}],"name":"NftNotStaked","type":"error"},{"inputs":[],"name":"NotApprovedForStaking","type":"error"},{"inputs":[],"name":"NotOwner","type":"error"},{"anonymous":false,"inputs":[{"indexed":true,"internalType":"address","name":"seller","type":"address"},{"indexed":true,"internalType":"address","name":"nftAddress","type":"address"},{"indexed":true,"internalType":"uint256","name":"tokenId","type":"uint256"},{"indexed":false,"internalType":"uint256","name":"floorPrice","type":"uint256"}],"name":"ItemStaked","type":"event"},{"anonymous":false,"inputs":[{"indexed":true,"internalType":"address","name":"from","type":"address"},{"indexed":true,"internalType":"address","name":"to","type":"address"},{"indexed":true,"internalType":"address","name":"nftAddress","type":"address"},{"indexed":false,"internalType":"uint256","name":"tokenId","type":"uint256"}],"name":"ItemTransferred","type":"event"},{"inputs":[{"internalType":"address","name":"nftAddress","type":"address"},{"internalType":"uint256","name":"tokenId","type":"uint256"}],"name":"stake","outputs":[],"stateMutability":"nonpayable","type":"function"},{"inputs":[{"internalType":"address","name":"nftAddress","type":"address"},{"internalType":"uint256","name":"tokenId","type":"uint256"},{"internalType":"address","name":"recipient","type":"address"}],"name":"transferNFT","outputs":[],"stateMutability":"nonpayable","type":"function"}],"evm":{"bytecode":{"linkReferences":{},"object":"60806040523480156200001157600080fd5b506040516200148338038062001483833981810160405281019062000037919062000124565b6200005367533595c3ea08bad860c01b620000b760201b60201c565b6200006f67d40382c81567004e60c01b620000b760201b60201c565b80600160006101000a81548173ffffffffffffffffffffffffffffffffffffffff021916908373ffffffffffffffffffffffffffffffffffffffff1602179055505062000156565b50565b600080fd5b600073ffffffffffffffffffffffffffffffffffffffff82169050919050565b6000620000ec82620000bf565b9050919050565b620000fe81620000df565b81146200010a57600080fd5b50565b6000815190506200011e81620000f3565b92915050565b6000602082840312156200013d576200013c620000ba565b5b60006200014d848285016200010d565b91505092915050565b61131d80620001666000396000f3fe608060405234801561001057600080fd5b50600436106100365760003560e01c8063adc9772e1461003b578063d2f0922a14610057575b600080fd5b61005560048036038101906100509190610f3c565b610073565b005b610071600480360381019061006c9190610f7c565b610837565b005b61008767afff2a7d429bdcf260c01b610ea0565b818161009d67f9b1b00c87416c6f60c01b610ea0565b6100b167b9a15d0b0b71347b60c01b610ea0565b6100c56719558c87db571e3e60c01b610ea0565b60008060008473ffffffffffffffffffffffffffffffffffffffff1673ffffffffffffffffffffffffffffffffffffffff1681526020019081526020016000206000838152602001908152602001600020604051806040016040529081600082015481526020016001820160009054906101000a900473ffffffffffffffffffffffffffffffffffffffff1673ffffffffffffffffffffffffffffffffffffffff1673ffffffffffffffffffffffffffffffffffffffff168152505090506101976723b00afbfe2f443960c01b610ea0565b6101ab67af45e1cff0ab531360c01b610ea0565b60008160000151111561021f576101cc673448001e6a26514860c01b610ea0565b6101e067f9b68366d5130d4460c01b610ea0565b82826040517f664cdb5f000000000000000000000000000000000000000000000000000000008152600401610216929190610fed565b60405180910390fd5b6102336715d51262f496bbbd60c01b610ea0565b6102476794eed6f2177c256260c01b610ea0565b61025b67e536dc503fa1b0df60c01b610ea0565b61026f678e596582b94dc6ce60c01b610ea0565b8484610285678813b1d818def93f60c01b610ea0565b61029967fd2ad0e392920c9560c01b610ea0565b6102ad675def48693c6ba14560c01b610ea0565b60008290506102c667126873bee223a8ca60c01b610ea0565b6102da67bfe1b20871f6d14c60c01b610ea0565b60008173ffffffffffffffffffffffffffffffffffffffff16636352211e846040518263ffffffff1660e01b81526004016103159190611016565b602060405180830381865afa158015610332573d6000803e3d6000fd5b505050506040513d601f19601f820116820180604052508101906103569190611046565b905061036c67e617ee0f31aa7b7760c01b610ea0565b610380673efa1f7bc5eaf8fc60c01b610ea0565b8073ffffffffffffffffffffffffffffffffffffffff163373ffffffffffffffffffffffffffffffffffffffff161461040d576103c7674f4e16a6fea7101460c01b610ea0565b6103db671eafe2dae004141960c01b610ea0565b6040517f30cd747100000000000000000000000000000000000000000000000000000000815260040160405180910390fd5b61042167ee1229b6cf90727860c01b610ea0565b610435675e11336d1eccf44060c01b610ea0565b61044866e0f7460bfe198160c01b610ea0565b61045c67a2337f4324b4bc4560c01b610ea0565b610470672fdab195ecc1fe8f60c01b610ea0565b61048467c45ded713250cf9060c01b610ea0565b600089905061049d67d4239de9187cb52160c01b610ea0565b6104b167ca193c563593edcb60c01b610ea0565b3073ffffffffffffffffffffffffffffffffffffffff168173ffffffffffffffffffffffffffffffffffffffff1663081812fc8b6040518263ffffffff1660e01b81526004016105019190611016565b602060405180830381865afa15801561051e573d6000803e3d6000fd5b505050506040513d601f19601f820116820180604052508101906105429190611046565b73ffffffffffffffffffffffffffffffffffffffff16146105b757610571670b14b71959958de860c01b610ea0565b610585675c77032d1fa1763b60c01b610ea0565b6040517f95faba0200000000000000000000000000000000000000000000000000000000815260040160405180910390fd5b6105cb679ccdce44fe07549060c01b610ea0565b6105df670294a29a9a8a434060c01b610ea0565b6105f3676cb3f192171f4c1960c01b610ea0565b6000600160009054906101000a900473ffffffffffffffffffffffffffffffffffffffff1673ffffffffffffffffffffffffffffffffffffffff16638e15f4736040518163ffffffff1660e01b815260040160a060405180830381865afa158015610662573d6000803e3d6000fd5b505050506040513d601f19601f820116820180604052508101906106869190611100565b5050509150506106a06792fb5f46d3c6b9d560c01b610ea0565b6106b467c44d122c4f4e9cb460c01b610ea0565b60008190506106cd67a07a2b97afc26b6960c01b610ea0565b60405180604001604052808281526020013373ffffffffffffffffffffffffffffffffffffffff168152506000808e73ffffffffffffffffffffffffffffffffffffffff1673ffffffffffffffffffffffffffffffffffffffff16815260200190815260200160002060008d81526020019081526020016000206000820151816000015560208201518160010160006101000a81548173ffffffffffffffffffffffffffffffffffffffff021916908373ffffffffffffffffffffffffffffffffffffffff1602179055509050506107af670425a40c4d0bbeae60c01b610ea0565b6107c36735e734686fbe513d60c01b610ea0565b8a8c73ffffffffffffffffffffffffffffffffffffffff163373ffffffffffffffffffffffffffffffffffffffff167f5a166ffeabdd418f2b5cc6d348a8b9753c581772f85e9440517e72ee52e597ba846040516108219190611016565b60405180910390a4505050505050505050505050565b61084b67ccb55322ff8f45d260c01b610ea0565b82826108616726a6ca47e701826960c01b610ea0565b61087567129b8df43d86c49b60c01b610ea0565b61088967bd254ac442d0a7bd60c01b610ea0565b60008060008473ffffffffffffffffffffffffffffffffffffffff1673ffffffffffffffffffffffffffffffffffffffff1681526020019081526020016000206000838152602001908152602001600020604051806040016040529081600082015481526020016001820160009054906101000a900473ffffffffffffffffffffffffffffffffffffffff1673ffffffffffffffffffffffffffffffffffffffff1673ffffffffffffffffffffffffffffffffffffffff1681525050905061095b67b91a88200a1e9f5360c01b610ea0565b61096f675654258b051bb44b60c01b610ea0565b60008160000151036109e25761098f67553438b50baf2c7960c01b610ea0565b6109a3675dc694f663e2d7ef60c01b610ea0565b82826040517f2858b5c90000000000000000000000000000000000000000000000000000000081526004016109d9929190610fed565b60405180910390fd5b6109f6676fa750f0c5becd9c60c01b610ea0565b610a0a67c33baf626140b54760c01b610ea0565b610a1e6730069612dd4b5c2e60c01b610ea0565b610a32678365f7bc1119e31a60c01b610ea0565b610a4667903aead3c713280360c01b610ea0565b610a5a67bf715e63b83097b160c01b610ea0565b6000869050610a7367a4cd1c8fd618ff8960c01b610ea0565b610a876763c5d0acc5f06ccc60c01b610ea0565b60008060008973ffffffffffffffffffffffffffffffffffffffff1673ffffffffffffffffffffffffffffffffffffffff1681526020019081526020016000206000888152602001908152602001600020604051806040016040529081600082015481526020016001820160009054906101000a900473ffffffffffffffffffffffffffffffffffffffff1673ffffffffffffffffffffffffffffffffffffffff1673ffffffffffffffffffffffffffffffffffffffff16815250509050610b5967b0c34437019e931360c01b610ea0565b610b6d67fbd74bf68e71b29260c01b610ea0565b610b8167288b7759eb72df2c60c01b610ea0565b806020015173ffffffffffffffffffffffffffffffffffffffff163373ffffffffffffffffffffffffffffffffffffffff1614610bf3576040517f08c379a0000000000000000000000000000000000000000000000000000000008152600401610bea906111fe565b60405180910390fd5b610c0767aba41615159f1fb760c01b610ea0565b610c1b678704746833186e5460c01b610ea0565b610c2f67a520eb6f7365152d60c01b610ea0565b610c4367e9b612c80a0143b560c01b610ea0565b600073ffffffffffffffffffffffffffffffffffffffff168673ffffffffffffffffffffffffffffffffffffffff1603610cb2576040517f08c379a0000000000000000000000000000000000000000000000000000000008152600401610ca990611290565b60405180910390fd5b610cc6670d5c5b742d0c768660c01b610ea0565b610cda67bfbf184c759274c960c01b610ea0565b610cee6708195aba946be5d960c01b610ea0565b8173ffffffffffffffffffffffffffffffffffffffff166342842e0e30888a6040518463ffffffff1660e01b8152600401610d2b939291906112b0565b600060405180830381600087803b158015610d4557600080fd5b505af1158015610d59573d6000803e3d6000fd5b50505050610d7167d58f0639832fbfc760c01b610ea0565b6000808973ffffffffffffffffffffffffffffffffffffffff1673ffffffffffffffffffffffffffffffffffffffff16815260200190815260200160002060008881526020019081526020016000206000808201600090556001820160006101000a81549073ffffffffffffffffffffffffffffffffffffffff02191690555050610e06677eb0cec79510f31060c01b610ea0565b610e1a67e4d58860ea07d1ae60c01b610ea0565b8773ffffffffffffffffffffffffffffffffffffffff168673ffffffffffffffffffffffffffffffffffffffff163073ffffffffffffffffffffffffffffffffffffffff167f56e49b3ccaea8ae6086bfe6ee22dd37852c58a4e400b1bac951c614ce306e5308a604051610e8e9190611016565b60405180910390a45050505050505050565b50565b600080fd5b600073ffffffffffffffffffffffffffffffffffffffff82169050919050565b6000610ed382610ea8565b9050919050565b610ee381610ec8565b8114610eee57600080fd5b50565b600081359050610f0081610eda565b92915050565b6000819050919050565b610f1981610f06565b8114610f2457600080fd5b50565b600081359050610f3681610f10565b92915050565b60008060408385031215610f5357610f52610ea3565b5b6000610f6185828601610ef1565b9250506020610f7285828601610f27565b9150509250929050565b600080600060608486031215610f9557610f94610ea3565b5b6000610fa386828701610ef1565b9350506020610fb486828701610f27565b9250506040610fc586828701610ef1565b9150509250925092565b610fd881610ec8565b82525050565b610fe781610f06565b82525050565b60006040820190506110026000830185610fcf565b61100f6020830184610fde565b9392505050565b600060208201905061102b6000830184610fde565b92915050565b60008151905061104081610eda565b92915050565b60006020828403121561105c5761105b610ea3565b5b600061106a84828501611031565b91505092915050565b600069ffffffffffffffffffff82169050919050565b61109281611073565b811461109d57600080fd5b50565b6000815190506110af81611089565b92915050565b6000819050919050565b6110c8816110b5565b81146110d357600080fd5b50565b6000815190506110e5816110bf565b92915050565b6000815190506110fa81610f10565b92915050565b600080600080600060a0868803121561111c5761111b610ea3565b5b600061112a888289016110a0565b955050602061113b888289016110d6565b945050604061114c888289016110eb565b935050606061115d888289016110eb565b925050608061116e888289016110a0565b9150509295509295909350565b600082825260208201905092915050565b7f4f6e6c79207468652073656c6c65722063616e207472616e736665722074686560008201527f204e46542e000000000000000000000000000000000000000000000000000000602082015250565b60006111e860258361117b565b91506111f38261118c565b604082019050919050565b60006020820190508181036000830152611217816111db565b9050919050565b7f526563697069656e7420616464726573732063616e6e6f74206265207a65726f60008201527f2e00000000000000000000000000000000000000000000000000000000000000602082015250565b600061127a60218361117b565b91506112858261121e565b604082019050919050565b600060208201905081810360008301526112a98161126d565b9050919050565b60006060820190506112c56000830186610fcf565b6112d26020830185610fcf565b6112df6040830184610fde565b94935050505056fea2646970667358221220ab97a3791f53f85bb1d699de7621fd0fee0115ce3ab9f49eb2baf997bf9cc2b564736f6c63430008110033","opcodes":"PUSH1 0x80 PUSH1 0x40 MSTORE CALLVALUE DUP1 ISZERO PUSH3 0x11 JUMPI PUSH1 0x0 DUP1 REVERT JUMPDEST POP PUSH1 0x40 MLOAD PUSH3 0x1483 CODESIZE SUB DUP1 PUSH3 0x1483 DUP4 CODECOPY DUP2 DUP2 ADD PUSH1 0x40 MSTORE DUP2 ADD SWAP1 PUSH3 0x37 SWAP2 SWAP1 PUSH3 0x124 JUMP JUMPDEST PUSH3 0x53 PUSH8 0x533595C3EA08BAD8 PUSH1 0xC0 SHL PUSH3 0xB7 PUSH1 0x20 SHL PUSH1 0x20 SHR JUMP JUMPDEST PUSH3 0x6F PUSH8 0xD40382C81567004E PUSH1 0xC0 SHL PUSH3 0xB7 PUSH1 0x20 SHL PUSH1 0x20 SHR JUMP JUMPDEST DUP1 PUSH1 0x1 PUSH1 0x0 PUSH2 0x100 EXP DUP2 SLOAD DUP2 PUSH20 0xFFFFFFFFFFFFFFFFFFFFFFFFFFFFFFFFFFFFFFFF MUL NOT AND SWAP1 DUP4 PUSH20 0xFFFFFFFFFFFFFFFFFFFFFFFFFFFFFFFFFFFFFFFF AND MUL OR SWAP1 SSTORE POP POP PUSH3 0x156 JUMP JUMPDEST POP JUMP JUMPDEST PUSH1 0x0 DUP1 REVERT JUMPDEST PUSH1 0x0 PUSH20 0xFFFFFFFFFFFFFFFFFFFFFFFFFFFFFFFFFFFFFFFF DUP3 AND SWAP1 POP SWAP2 SWAP1 POP JUMP JUMPDEST PUSH1 0x0 PUSH3 0xEC DUP3 PUSH3 0xBF JUMP JUMPDEST SWAP1 POP SWAP2 SWAP1 POP JUMP JUMPDEST PUSH3 0xFE DUP2 PUSH3 0xDF JUMP JUMPDEST DUP2 EQ PUSH3 0x10A JUMPI PUSH1 0x0 DUP1 REVERT JUMPDEST POP JUMP JUMPDEST PUSH1 0x0 DUP2 MLOAD SWAP1 POP PUSH3 0x11E DUP2 PUSH3 0xF3 JUMP JUMPDEST SWAP3 SWAP2 POP POP JUMP JUMPDEST PUSH1 0x0 PUSH1 0x20 DUP3 DUP5 SUB SLT ISZERO PUSH3 0x13D JUMPI PUSH3 0x13C PUSH3 0xBA JUMP JUMPDEST JUMPDEST PUSH1 0x0 PUSH3 0x14D DUP5 DUP3 DUP6 ADD PUSH3 0x10D JUMP JUMPDEST SWAP2 POP POP SWAP3 SWAP2 POP POP JUMP JUMPDEST PUSH2 0x131D DUP1 PUSH3 0x166 PUSH1 0x0 CODECOPY PUSH1 0x0 RETURN INVALID PUSH1 0x80 PUSH1 0x40 MSTORE CALLVALUE DUP1 ISZERO PUSH2 0x10 JUMPI PUSH1 0x0 DUP1 REVERT JUMPDEST POP PUSH1 0x4 CALLDATASIZE LT PUSH2 0x36 JUMPI PUSH1 0x0 CALLDATALOAD PUSH1 0xE0 SHR DUP1 PUSH4 0xADC9772E EQ PUSH2 0x3B JUMPI DUP1 PUSH4 0xD2F0922A EQ PUSH2 0x57 JUMPI JUMPDEST PUSH1 0x0 DUP1 REVERT JUMPDEST PUSH2 0x55 PUSH1 0x4 DUP1 CALLDATASIZE SUB DUP2 ADD SWAP1 PUSH2 0x50 SWAP2 SWAP1 PUSH2 0xF3C JUMP JUMPDEST PUSH2 0x73 JUMP JUMPDEST STOP JUMPDEST PUSH2 0x71 PUSH1 0x4 DUP1 CALLDATASIZE SUB DUP2 ADD SWAP1 PUSH2 0x6C SWAP2 SWAP1 PUSH2 0xF7C JUMP JUMPDEST PUSH2 0x837 JUMP JUMPDEST STOP JUMPDEST PUSH2 0x87 PUSH8 0xAFFF2A7D429BDCF2 PUSH1 0xC0 SHL PUSH2 0xEA0 JUMP JUMPDEST DUP2 DUP2 PUSH2 0x9D PUSH8 0xF9B1B00C87416C6F PUSH1 0xC0 SHL PUSH2 0xEA0 JUMP JUMPDEST PUSH2 0xB1 PUSH8 0xB9A15D0B0B71347B PUSH1 0xC0 SHL PUSH2 0xEA0 JUMP JUMPDEST PUSH2 0xC5 PUSH8 0x19558C87DB571E3E PUSH1 0xC0 SHL PUSH2 0xEA0 JUMP JUMPDEST PUSH1 0x0 DUP1 PUSH1 0x0 DUP5 PUSH20 0xFFFFFFFFFFFFFFFFFFFFFFFFFFFFFFFFFFFFFFFF AND PUSH20 0xFFFFFFFFFFFFFFFFFFFFFFFFFFFFFFFFFFFFFFFF AND DUP2 MSTORE PUSH1 0x20 ADD SWAP1 DUP2 MSTORE PUSH1 0x20 ADD PUSH1 0x0 KECCAK256 PUSH1 0x0 DUP4 DUP2 MSTORE PUSH1 0x20 ADD SWAP1 DUP2 MSTORE PUSH1 0x20 ADD PUSH1 0x0 KECCAK256 PUSH1 0x40 MLOAD DUP1 PUSH1 0x40 ADD PUSH1 0x40 MSTORE SWAP1 DUP2 PUSH1 0x0 DUP3 ADD SLOAD DUP2 MSTORE PUSH1 0x20 ADD PUSH1 0x1 DUP3 ADD PUSH1 0x0 SWAP1 SLOAD SWAP1 PUSH2 0x100 EXP SWAP1 DIV PUSH20 0xFFFFFFFFFFFFFFFFFFFFFFFFFFFFFFFFFFFFFFFF AND PUSH20 0xFFFFFFFFFFFFFFFFFFFFFFFFFFFFFFFFFFFFFFFF AND PUSH20 0xFFFFFFFFFFFFFFFFFFFFFFFFFFFFFFFFFFFFFFFF AND DUP2 MSTORE POP POP SWAP1 POP PUSH2 0x197 PUSH8 0x23B00AFBFE2F4439 PUSH1 0xC0 SHL PUSH2 0xEA0 JUMP JUMPDEST PUSH2 0x1AB PUSH8 0xAF45E1CFF0AB5313 PUSH1 0xC0 SHL PUSH2 0xEA0 JUMP JUMPDEST PUSH1 0x0 DUP2 PUSH1 0x0 ADD MLOAD GT ISZERO PUSH2 0x21F JUMPI PUSH2 0x1CC PUSH8 0x3448001E6A265148 PUSH1 0xC0 SHL PUSH2 0xEA0 JUMP JUMPDEST PUSH2 0x1E0 PUSH8 0xF9B68366D5130D44 PUSH1 0xC0 SHL PUSH2 0xEA0 JUMP JUMPDEST DUP3 DUP3 PUSH1 0x40 MLOAD PUSH32 0x664CDB5F00000000000000000000000000000000000000000000000000000000 DUP2 MSTORE PUSH1 0x4 ADD PUSH2 0x216 SWAP3 SWAP2 SWAP1 PUSH2 0xFED JUMP JUMPDEST PUSH1 0x40 MLOAD DUP1 SWAP2 SUB SWAP1 REVERT JUMPDEST PUSH2 0x233 PUSH8 0x15D51262F496BBBD PUSH1 0xC0 SHL PUSH2 0xEA0 JUMP JUMPDEST PUSH2 0x247 PUSH8 0x94EED6F2177C2562 PUSH1 0xC0 SHL PUSH2 0xEA0 JUMP JUMPDEST PUSH2 0x25B PUSH8 0xE536DC503FA1B0DF PUSH1 0xC0 SHL PUSH2 0xEA0 JUMP JUMPDEST PUSH2 0x26F PUSH8 0x8E596582B94DC6CE PUSH1 0xC0 SHL PUSH2 0xEA0 JUMP JUMPDEST DUP5 DUP5 PUSH2 0x285 PUSH8 0x8813B1D818DEF93F PUSH1 0xC0 SHL PUSH2 0xEA0 JUMP JUMPDEST PUSH2 0x299 PUSH8 0xFD2AD0E392920C95 PUSH1 0xC0 SHL PUSH2 0xEA0 JUMP JUMPDEST PUSH2 0x2AD PUSH8 0x5DEF48693C6BA145 PUSH1 0xC0 SHL PUSH2 0xEA0 JUMP JUMPDEST PUSH1 0x0 DUP3 SWAP1 POP PUSH2 0x2C6 PUSH8 0x126873BEE223A8CA PUSH1 0xC0 SHL PUSH2 0xEA0 JUMP JUMPDEST PUSH2 0x2DA PUSH8 0xBFE1B20871F6D14C PUSH1 0xC0 SHL PUSH2 0xEA0 JUMP JUMPDEST PUSH1 0x0 DUP2 PUSH20 0xFFFFFFFFFFFFFFFFFFFFFFFFFFFFFFFFFFFFFFFF AND PUSH4 0x6352211E DUP5 PUSH1 0x40 MLOAD DUP3 PUSH4 0xFFFFFFFF AND PUSH1 0xE0 SHL DUP2 MSTORE PUSH1 0x4 ADD PUSH2 0x315 SWAP2 SWAP1 PUSH2 0x1016 JUMP JUMPDEST PUSH1 0x20 PUSH1 0x40 MLOAD DUP1 DUP4 SUB DUP2 DUP7 GAS STATICCALL ISZERO DUP1 ISZERO PUSH2 0x332 JUMPI RETURNDATASIZE PUSH1 0x0 DUP1 RETURNDATACOPY RETURNDATASIZE PUSH1 0x0 REVERT JUMPDEST POP POP POP POP PUSH1 0x40 MLOAD RETURNDATASIZE PUSH1 0x1F NOT PUSH1 0x1F DUP3 ADD AND DUP3 ADD DUP1 PUSH1 0x40 MSTORE POP DUP2 ADD SWAP1 PUSH2 0x356 SWAP2 SWAP1 PUSH2 0x1046 JUMP JUMPDEST SWAP1 POP PUSH2 0x36C PUSH8 0xE617EE0F31AA7B77 PUSH1 0xC0 SHL PUSH2 0xEA0 JUMP JUMPDEST PUSH2 0x380 PUSH8 0x3EFA1F7BC5EAF8FC PUSH1 0xC0 SHL PUSH2 0xEA0 JUMP JUMPDEST DUP1 PUSH20 0xFFFFFFFFFFFFFFFFFFFFFFFFFFFFFFFFFFFFFFFF AND CALLER PUSH20 0xFFFFFFFFFFFFFFFFFFFFFFFFFFFFFFFFFFFFFFFF AND EQ PUSH2 0x40D JUMPI PUSH2 0x3C7 PUSH8 0x4F4E16A6FEA71014 PUSH1 0xC0 SHL PUSH2 0xEA0 JUMP JUMPDEST PUSH2 0x3DB PUSH8 0x1EAFE2DAE0041419 PUSH1 0xC0 SHL PUSH2 0xEA0 JUMP JUMPDEST PUSH1 0x40 MLOAD PUSH32 0x30CD747100000000000000000000000000000000000000000000000000000000 DUP2 MSTORE PUSH1 0x4 ADD PUSH1 0x40 MLOAD DUP1 SWAP2 SUB SWAP1 REVERT JUMPDEST PUSH2 0x421 PUSH8 0xEE1229B6CF907278 PUSH1 0xC0 SHL PUSH2 0xEA0 JUMP JUMPDEST PUSH2 0x435 PUSH8 0x5E11336D1ECCF440 PUSH1 0xC0 SHL PUSH2 0xEA0 JUMP JUMPDEST PUSH2 0x448 PUSH7 0xE0F7460BFE1981 PUSH1 0xC0 SHL PUSH2 0xEA0 JUMP JUMPDEST PUSH2 0x45C PUSH8 0xA2337F4324B4BC45 PUSH1 0xC0 SHL PUSH2 0xEA0 JUMP JUMPDEST PUSH2 0x470 PUSH8 0x2FDAB195ECC1FE8F PUSH1 0xC0 SHL PUSH2 0xEA0 JUMP JUMPDEST PUSH2 0x484 PUSH8 0xC45DED713250CF90 PUSH1 0xC0 SHL PUSH2 0xEA0 JUMP JUMPDEST PUSH1 0x0 DUP10 SWAP1 POP PUSH2 0x49D PUSH8 0xD4239DE9187CB521 PUSH1 0xC0 SHL PUSH2 0xEA0 JUMP JUMPDEST PUSH2 0x4B1 PUSH8 0xCA193C563593EDCB PUSH1 0xC0 SHL PUSH2 0xEA0 JUMP JUMPDEST ADDRESS PUSH20 0xFFFFFFFFFFFFFFFFFFFFFFFFFFFFFFFFFFFFFFFF AND DUP2 PUSH20 0xFFFFFFFFFFFFFFFFFFFFFFFFFFFFFFFFFFFFFFFF AND PUSH4 0x81812FC DUP12 PUSH1 0x40 MLOAD DUP3 PUSH4 0xFFFFFFFF AND PUSH1 0xE0 SHL DUP2 MSTORE PUSH1 0x4 ADD PUSH2 0x501 SWAP2 SWAP1 PUSH2 0x1016 JUMP JUMPDEST PUSH1 0x20 PUSH1 0x40 MLOAD DUP1 DUP4 SUB DUP2 DUP7 GAS STATICCALL ISZERO DUP1 ISZERO PUSH2 0x51E JUMPI RETURNDATASIZE PUSH1 0x0 DUP1 RETURNDATACOPY RETURNDATASIZE PUSH1 0x0 REVERT JUMPDEST POP POP POP POP PUSH1 0x40 MLOAD RETURNDATASIZE PUSH1 0x1F NOT PUSH1 0x1F DUP3 ADD AND DUP3 ADD DUP1 PUSH1 0x40 MSTORE POP DUP2 ADD SWAP1 PUSH2 0x542 SWAP2 SWAP1 PUSH2 0x1046 JUMP JUMPDEST PUSH20 0xFFFFFFFFFFFFFFFFFFFFFFFFFFFFFFFFFFFFFFFF AND EQ PUSH2 0x5B7 JUMPI PUSH2 0x571 PUSH8 0xB14B71959958DE8 PUSH1 0xC0 SHL PUSH2 0xEA0 JUMP JUMPDEST PUSH2 0x585 PUSH8 0x5C77032D1FA1763B PUSH1 0xC0 SHL PUSH2 0xEA0 JUMP JUMPDEST PUSH1 0x40 MLOAD PUSH32 0x95FABA0200000000000000000000000000000000000000000000000000000000 DUP2 MSTORE PUSH1 0x4 ADD PUSH1 0x40 MLOAD DUP1 SWAP2 SUB SWAP1 REVERT JUMPDEST PUSH2 0x5CB PUSH8 0x9CCDCE44FE075490 PUSH1 0xC0 SHL PUSH2 0xEA0 JUMP JUMPDEST PUSH2 0x5DF PUSH8 0x294A29A9A8A4340 PUSH1 0xC0 SHL PUSH2 0xEA0 JUMP JUMPDEST PUSH2 0x5F3 PUSH8 0x6CB3F192171F4C19 PUSH1 0xC0 SHL PUSH2 0xEA0 JUMP JUMPDEST PUSH1 0x0 PUSH1 0x1 PUSH1 0x0 SWAP1 SLOAD SWAP1 PUSH2 0x100 EXP SWAP1 DIV PUSH20 0xFFFFFFFFFFFFFFFFFFFFFFFFFFFFFFFFFFFFFFFF AND PUSH20 0xFFFFFFFFFFFFFFFFFFFFFFFFFFFFFFFFFFFFFFFF AND PUSH4 0x8E15F473 PUSH1 0x40 MLOAD DUP2 PUSH4 0xFFFFFFFF AND PUSH1 0xE0 SHL DUP2 MSTORE PUSH1 0x4 ADD PUSH1 0xA0 PUSH1 0x40 MLOAD DUP1 DUP4 SUB DUP2 DUP7 GAS STATICCALL ISZERO DUP1 ISZERO PUSH2 0x662 JUMPI RETURNDATASIZE PUSH1 0x0 DUP1 RETURNDATACOPY RETURNDATASIZE PUSH1 0x0 REVERT JUMPDEST POP POP POP POP PUSH1 0x40 MLOAD RETURNDATASIZE PUSH1 0x1F NOT PUSH1 0x1F DUP3 ADD AND DUP3 ADD DUP1 PUSH1 0x40 MSTORE POP DUP2 ADD SWAP1 PUSH2 0x686 SWAP2 SWAP1 PUSH2 0x1100 JUMP JUMPDEST POP POP POP SWAP2 POP POP PUSH2 0x6A0 PUSH8 0x92FB5F46D3C6B9D5 PUSH1 0xC0 SHL PUSH2 0xEA0 JUMP JUMPDEST PUSH2 0x6B4 PUSH8 0xC44D122C4F4E9CB4 PUSH1 0xC0 SHL PUSH2 0xEA0 JUMP JUMPDEST PUSH1 0x0 DUP2 SWAP1 POP PUSH2 0x6CD PUSH8 0xA07A2B97AFC26B69 PUSH1 0xC0 SHL PUSH2 0xEA0 JUMP JUMPDEST PUSH1 0x40 MLOAD DUP1 PUSH1 0x40 ADD PUSH1 0x40 MSTORE DUP1 DUP3 DUP2 MSTORE PUSH1 0x20 ADD CALLER PUSH20 0xFFFFFFFFFFFFFFFFFFFFFFFFFFFFFFFFFFFFFFFF AND DUP2 MSTORE POP PUSH1 0x0 DUP1 DUP15 PUSH20 0xFFFFFFFFFFFFFFFFFFFFFFFFFFFFFFFFFFFFFFFF AND PUSH20 0xFFFFFFFFFFFFFFFFFFFFFFFFFFFFFFFFFFFFFFFF AND DUP2 MSTORE PUSH1 0x20 ADD SWAP1 DUP2 MSTORE PUSH1 0x20 ADD PUSH1 0x0 KECCAK256 PUSH1 0x0 DUP14 DUP2 MSTORE PUSH1 0x20 ADD SWAP1 DUP2 MSTORE PUSH1 0x20 ADD PUSH1 0x0 KECCAK256 PUSH1 0x0 DUP3 ADD MLOAD DUP2 PUSH1 0x0 ADD SSTORE PUSH1 0x20 DUP3 ADD MLOAD DUP2 PUSH1 0x1 ADD PUSH1 0x0 PUSH2 0x100 EXP DUP2 SLOAD DUP2 PUSH20 0xFFFFFFFFFFFFFFFFFFFFFFFFFFFFFFFFFFFFFFFF MUL NOT AND SWAP1 DUP4 PUSH20 0xFFFFFFFFFFFFFFFFFFFFFFFFFFFFFFFFFFFFFFFF AND MUL OR SWAP1 SSTORE POP SWAP1 POP POP PUSH2 0x7AF PUSH8 0x425A40C4D0BBEAE PUSH1 0xC0 SHL PUSH2 0xEA0 JUMP JUMPDEST PUSH2 0x7C3 PUSH8 0x35E734686FBE513D PUSH1 0xC0 SHL PUSH2 0xEA0 JUMP JUMPDEST DUP11 DUP13 PUSH20 0xFFFFFFFFFFFFFFFFFFFFFFFFFFFFFFFFFFFFFFFF AND CALLER PUSH20 0xFFFFFFFFFFFFFFFFFFFFFFFFFFFFFFFFFFFFFFFF AND PUSH32 0x5A166FFEABDD418F2B5CC6D348A8B9753C581772F85E9440517E72EE52E597BA DUP5 PUSH1 0x40 MLOAD PUSH2 0x821 SWAP2 SWAP1 PUSH2 0x1016 JUMP JUMPDEST PUSH1 0x40 MLOAD DUP1 SWAP2 SUB SWAP1 LOG4 POP POP POP POP POP POP POP POP POP POP POP POP JUMP JUMPDEST PUSH2 0x84B PUSH8 0xCCB55322FF8F45D2 PUSH1 0xC0 SHL PUSH2 0xEA0 JUMP JUMPDEST DUP3 DUP3 PUSH2 0x861 PUSH8 0x26A6CA47E7018269 PUSH1 0xC0 SHL PUSH2 0xEA0 JUMP JUMPDEST PUSH2 0x875 PUSH8 0x129B8DF43D86C49B PUSH1 0xC0 SHL PUSH2 0xEA0 JUMP JUMPDEST PUSH2 0x889 PUSH8 0xBD254AC442D0A7BD PUSH1 0xC0 SHL PUSH2 0xEA0 JUMP JUMPDEST PUSH1 0x0 DUP1 PUSH1 0x0 DUP5 PUSH20 0xFFFFFFFFFFFFFFFFFFFFFFFFFFFFFFFFFFFFFFFF AND PUSH20 0xFFFFFFFFFFFFFFFFFFFFFFFFFFFFFFFFFFFFFFFF AND DUP2 MSTORE PUSH1 0x20 ADD SWAP1 DUP2 MSTORE PUSH1 0x20 ADD PUSH1 0x0 KECCAK256 PUSH1 0x0 DUP4 DUP2 MSTORE PUSH1 0x20 ADD SWAP1 DUP2 MSTORE PUSH1 0x20 ADD PUSH1 0x0 KECCAK256 PUSH1 0x40 MLOAD DUP1 PUSH1 0x40 ADD PUSH1 0x40 MSTORE SWAP1 DUP2 PUSH1 0x0 DUP3 ADD SLOAD DUP2 MSTORE PUSH1 0x20 ADD PUSH1 0x1 DUP3 ADD PUSH1 0x0 SWAP1 SLOAD SWAP1 PUSH2 0x100 EXP SWAP1 DIV PUSH20 0xFFFFFFFFFFFFFFFFFFFFFFFFFFFFFFFFFFFFFFFF AND PUSH20 0xFFFFFFFFFFFFFFFFFFFFFFFFFFFFFFFFFFFFFFFF AND PUSH20 0xFFFFFFFFFFFFFFFFFFFFFFFFFFFFFFFFFFFFFFFF AND DUP2 MSTORE POP POP SWAP1 POP PUSH2 0x95B PUSH8 0xB91A88200A1E9F53 PUSH1 0xC0 SHL PUSH2 0xEA0 JUMP JUMPDEST PUSH2 0x96F PUSH8 0x5654258B051BB44B PUSH1 0xC0 SHL PUSH2 0xEA0 JUMP JUMPDEST PUSH1 0x0 DUP2 PUSH1 0x0 ADD MLOAD SUB PUSH2 0x9E2 JUMPI PUSH2 0x98F PUSH8 0x553438B50BAF2C79 PUSH1 0xC0 SHL PUSH2 0xEA0 JUMP JUMPDEST PUSH2 0x9A3 PUSH8 0x5DC694F663E2D7EF PUSH1 0xC0 SHL PUSH2 0xEA0 JUMP JUMPDEST DUP3 DUP3 PUSH1 0x40 MLOAD PUSH32 0x2858B5C900000000000000000000000000000000000000000000000000000000 DUP2 MSTORE PUSH1 0x4 ADD PUSH2 0x9D9 SWAP3 SWAP2 SWAP1 PUSH2 0xFED JUMP JUMPDEST PUSH1 0x40 MLOAD DUP1 SWAP2 SUB SWAP1 REVERT JUMPDEST PUSH2 0x9F6 PUSH8 0x6FA750F0C5BECD9C PUSH1 0xC0 SHL PUSH2 0xEA0 JUMP JUMPDEST PUSH2 0xA0A PUSH8 0xC33BAF626140B547 PUSH1 0xC0 SHL PUSH2 0xEA0 JUMP JUMPDEST PUSH2 0xA1E PUSH8 0x30069612DD4B5C2E PUSH1 0xC0 SHL PUSH2 0xEA0 JUMP JUMPDEST PUSH2 0xA32 PUSH8 0x8365F7BC1119E31A PUSH1 0xC0 SHL PUSH2 0xEA0 JUMP JUMPDEST PUSH2 0xA46 PUSH8 0x903AEAD3C7132803 PUSH1 0xC0 SHL PUSH2 0xEA0 JUMP JUMPDEST PUSH2 0xA5A PUSH8 0xBF715E63B83097B1 PUSH1 0xC0 SHL PUSH2 0xEA0 JUMP JUMPDEST PUSH1 0x0 DUP7 SWAP1 POP PUSH2 0xA73 PUSH8 0xA4CD1C8FD618FF89 PUSH1 0xC0 SHL PUSH2 0xEA0 JUMP JUMPDEST PUSH2 0xA87 PUSH8 0x63C5D0ACC5F06CCC PUSH1 0xC0 SHL PUSH2 0xEA0 JUMP JUMPDEST PUSH1 0x0 DUP1 PUSH1 0x0 DUP10 PUSH20 0xFFFFFFFFFFFFFFFFFFFFFFFFFFFFFFFFFFFFFFFF AND PUSH20 0xFFFFFFFFFFFFFFFFFFFFFFFFFFFFFFFFFFFFFFFF AND DUP2 MSTORE PUSH1 0x20 ADD SWAP1 DUP2 MSTORE PUSH1 0x20 ADD PUSH1 0x0 KECCAK256 PUSH1 0x0 DUP9 DUP2 MSTORE PUSH1 0x20 ADD SWAP1 DUP2 MSTORE PUSH1 0x20 ADD PUSH1 0x0 KECCAK256 PUSH1 0x40 MLOAD DUP1 PUSH1 0x40 ADD PUSH1 0x40 MSTORE SWAP1 DUP2 PUSH1 0x0 DUP3 ADD SLOAD DUP2 MSTORE PUSH1 0x20 ADD PUSH1 0x1 DUP3 ADD PUSH1 0x0 SWAP1 SLOAD SWAP1 PUSH2 0x100 EXP SWAP1 DIV PUSH20 0xFFFFFFFFFFFFFFFFFFFFFFFFFFFFFFFFFFFFFFFF AND PUSH20 0xFFFFFFFFFFFFFFFFFFFFFFFFFFFFFFFFFFFFFFFF AND PUSH20 0xFFFFFFFFFFFFFFFFFFFFFFFFFFFFFFFFFFFFFFFF AND DUP2 MSTORE POP POP SWAP1 POP PUSH2 0xB59 PUSH8 0xB0C34437019E9313 PUSH1 0xC0 SHL PUSH2 0xEA0 JUMP JUMPDEST PUSH2 0xB6D PUSH8 0xFBD74BF68E71B292 PUSH1 0xC0 SHL PUSH2 0xEA0 JUMP JUMPDEST PUSH2 0xB81 PUSH8 0x288B7759EB72DF2C PUSH1 0xC0 SHL PUSH2 0xEA0 JUMP JUMPDEST DUP1 PUSH1 0x20 ADD MLOAD PUSH20 0xFFFFFFFFFFFFFFFFFFFFFFFFFFFFFFFFFFFFFFFF AND CALLER PUSH20 0xFFFFFFFFFFFFFFFFFFFFFFFFFFFFFFFFFFFFFFFF AND EQ PUSH2 0xBF3 JUMPI PUSH1 0x40 MLOAD PUSH32 0x8C379A000000000000000000000000000000000000000000000000000000000 DUP2 MSTORE PUSH1 0x4 ADD PUSH2 0xBEA SWAP1 PUSH2 0x11FE JUMP JUMPDEST PUSH1 0x40 MLOAD DUP1 SWAP2 SUB SWAP1 REVERT JUMPDEST PUSH2 0xC07 PUSH8 0xABA41615159F1FB7 PUSH1 0xC0 SHL PUSH2 0xEA0 JUMP JUMPDEST PUSH2 0xC1B PUSH8 0x8704746833186E54 PUSH1 0xC0 SHL PUSH2 0xEA0 JUMP JUMPDEST PUSH2 0xC2F PUSH8 0xA520EB6F7365152D PUSH1 0xC0 SHL PUSH2 0xEA0 JUMP JUMPDEST PUSH2 0xC43 PUSH8 0xE9B612C80A0143B5 PUSH1 0xC0 SHL PUSH2 0xEA0 JUMP JUMPDEST PUSH1 0x0 PUSH20 0xFFFFFFFFFFFFFFFFFFFFFFFFFFFFFFFFFFFFFFFF AND DUP7 PUSH20 0xFFFFFFFFFFFFFFFFFFFFFFFFFFFFFFFFFFFFFFFF AND SUB PUSH2 0xCB2 JUMPI PUSH1 0x40 MLOAD PUSH32 0x8C379A000000000000000000000000000000000000000000000000000000000 DUP2 MSTORE PUSH1 0x4 ADD PUSH2 0xCA9 SWAP1 PUSH2 0x1290 JUMP JUMPDEST PUSH1 0x40 MLOAD DUP1 SWAP2 SUB SWAP1 REVERT JUMPDEST PUSH2 0xCC6 PUSH8 0xD5C5B742D0C7686 PUSH1 0xC0 SHL PUSH2 0xEA0 JUMP JUMPDEST PUSH2 0xCDA PUSH8 0xBFBF184C759274C9 PUSH1 0xC0 SHL PUSH2 0xEA0 JUMP JUMPDEST PUSH2 0xCEE PUSH8 0x8195ABA946BE5D9 PUSH1 0xC0 SHL PUSH2 0xEA0 JUMP JUMPDEST DUP2 PUSH20 0xFFFFFFFFFFFFFFFFFFFFFFFFFFFFFFFFFFFFFFFF AND PUSH4 0x42842E0E ADDRESS DUP9 DUP11 PUSH1 0x40 MLOAD DUP5 PUSH4 0xFFFFFFFF AND PUSH1 0xE0 SHL DUP2 MSTORE PUSH1 0x4 ADD PUSH2 0xD2B SWAP4 SWAP3 SWAP2 SWAP1 PUSH2 0x12B0 JUMP JUMPDEST PUSH1 0x0 PUSH1 0x40 MLOAD DUP1 DUP4 SUB DUP2 PUSH1 0x0 DUP8 DUP1 EXTCODESIZE ISZERO DUP1 ISZERO PUSH2 0xD45 JUMPI PUSH1 0x0 DUP1 REVERT JUMPDEST POP GAS CALL ISZERO DUP1 ISZERO PUSH2 0xD59 JUMPI RETURNDATASIZE PUSH1 0x0 DUP1 RETURNDATACOPY RETURNDATASIZE PUSH1 0x0 REVERT JUMPDEST POP POP POP POP PUSH2 0xD71 PUSH8 0xD58F0639832FBFC7 PUSH1 0xC0 SHL PUSH2 0xEA0 JUMP JUMPDEST PUSH1 0x0 DUP1 DUP10 PUSH20 0xFFFFFFFFFFFFFFFFFFFFFFFFFFFFFFFFFFFFFFFF AND PUSH20 0xFFFFFFFFFFFFFFFFFFFFFFFFFFFFFFFFFFFFFFFF AND DUP2 MSTORE PUSH1 0x20 ADD SWAP1 DUP2 MSTORE PUSH1 0x20 ADD PUSH1 0x0 KECCAK256 PUSH1 0x0 DUP9 DUP2 MSTORE PUSH1 0x20 ADD SWAP1 DUP2 MSTORE PUSH1 0x20 ADD PUSH1 0x0 KECCAK256 PUSH1 0x0 DUP1 DUP3 ADD PUSH1 0x0 SWAP1 SSTORE PUSH1 0x1 DUP3 ADD PUSH1 0x0 PUSH2 0x100 EXP DUP2 SLOAD SWAP1 PUSH20 0xFFFFFFFFFFFFFFFFFFFFFFFFFFFFFFFFFFFFFFFF MUL NOT AND SWAP1 SSTORE POP POP PUSH2 0xE06 PUSH8 0x7EB0CEC79510F310 PUSH1 0xC0 SHL PUSH2 0xEA0 JUMP JUMPDEST PUSH2 0xE1A PUSH8 0xE4D58860EA07D1AE PUSH1 0xC0 SHL PUSH2 0xEA0 JUMP JUMPDEST DUP8 PUSH20 0xFFFFFFFFFFFFFFFFFFFFFFFFFFFFFFFFFFFFFFFF AND DUP7 PUSH20 0xFFFFFFFFFFFFFFFFFFFFFFFFFFFFFFFFFFFFFFFF AND ADDRESS PUSH20 0xFFFFFFFFFFFFFFFFFFFFFFFFFFFFFFFFFFFFFFFF AND PUSH32 0x56E49B3CCAEA8AE6086BFE6EE22DD37852C58A4E400B1BAC951C614CE306E530 DUP11 PUSH1 0x40 MLOAD PUSH2 0xE8E SWAP2 SWAP1 PUSH2 0x1016 JUMP JUMPDEST PUSH1 0x40 MLOAD DUP1 SWAP2 SUB SWAP1 LOG4 POP POP POP POP POP POP POP POP JUMP JUMPDEST POP JUMP JUMPDEST PUSH1 0x0 DUP1 REVERT JUMPDEST PUSH1 0x0 PUSH20 0xFFFFFFFFFFFFFFFFFFFFFFFFFFFFFFFFFFFFFFFF DUP3 AND SWAP1 POP SWAP2 SWAP1 POP JUMP JUMPDEST PUSH1 0x0 PUSH2 0xED3 DUP3 PUSH2 0xEA8 JUMP JUMPDEST SWAP1 POP SWAP2 SWAP1 POP JUMP JUMPDEST PUSH2 0xEE3 DUP2 PUSH2 0xEC8 JUMP JUMPDEST DUP2 EQ PUSH2 0xEEE JUMPI PUSH1 0x0 DUP1 REVERT JUMPDEST POP JUMP JUMPDEST PUSH1 0x0 DUP2 CALLDATALOAD SWAP1 POP PUSH2 0xF00 DUP2 PUSH2 0xEDA JUMP JUMPDEST SWAP3 SWAP2 POP POP JUMP JUMPDEST PUSH1 0x0 DUP2 SWAP1 POP SWAP2 SWAP1 POP JUMP JUMPDEST PUSH2 0xF19 DUP2 PUSH2 0xF06 JUMP JUMPDEST DUP2 EQ PUSH2 0xF24 JUMPI PUSH1 0x0 DUP1 REVERT JUMPDEST POP JUMP JUMPDEST PUSH1 0x0 DUP2 CALLDATALOAD SWAP1 POP PUSH2 0xF36 DUP2 PUSH2 0xF10 JUMP JUMPDEST SWAP3 SWAP2 POP POP JUMP JUMPDEST PUSH1 0x0 DUP1 PUSH1 0x40 DUP4 DUP6 SUB SLT ISZERO PUSH2 0xF53 JUMPI PUSH2 0xF52 PUSH2 0xEA3 JUMP JUMPDEST JUMPDEST PUSH1 0x0 PUSH2 0xF61 DUP6 DUP3 DUP7 ADD PUSH2 0xEF1 JUMP JUMPDEST SWAP3 POP POP PUSH1 0x20 PUSH2 0xF72 DUP6 DUP3 DUP7 ADD PUSH2 0xF27 JUMP JUMPDEST SWAP2 POP POP SWAP3 POP SWAP3 SWAP1 POP JUMP JUMPDEST PUSH1 0x0 DUP1 PUSH1 0x0 PUSH1 0x60 DUP5 DUP7 SUB SLT ISZERO PUSH2 0xF95 JUMPI PUSH2 0xF94 PUSH2 0xEA3 JUMP JUMPDEST JUMPDEST PUSH1 0x0 PUSH2 0xFA3 DUP7 DUP3 DUP8 ADD PUSH2 0xEF1 JUMP JUMPDEST SWAP4 POP POP PUSH1 0x20 PUSH2 0xFB4 DUP7 DUP3 DUP8 ADD PUSH2 0xF27 JUMP JUMPDEST SWAP3 POP POP PUSH1 0x40 PUSH2 0xFC5 DUP7 DUP3 DUP8 ADD PUSH2 0xEF1 JUMP JUMPDEST SWAP2 POP POP SWAP3 POP SWAP3 POP SWAP3 JUMP JUMPDEST PUSH2 0xFD8 DUP2 PUSH2 0xEC8 JUMP JUMPDEST DUP3 MSTORE POP POP JUMP JUMPDEST PUSH2 0xFE7 DUP2 PUSH2 0xF06 JUMP JUMPDEST DUP3 MSTORE POP POP JUMP JUMPDEST PUSH1 0x0 PUSH1 0x40 DUP3 ADD SWAP1 POP PUSH2 0x1002 PUSH1 0x0 DUP4 ADD DUP6 PUSH2 0xFCF JUMP JUMPDEST PUSH2 0x100F PUSH1 0x20 DUP4 ADD DUP5 PUSH2 0xFDE JUMP JUMPDEST SWAP4 SWAP3 POP POP POP JUMP JUMPDEST PUSH1 0x0 PUSH1 0x20 DUP3 ADD SWAP1 POP PUSH2 0x102B PUSH1 0x0 DUP4 ADD DUP5 PUSH2 0xFDE JUMP JUMPDEST SWAP3 SWAP2 POP POP JUMP JUMPDEST PUSH1 0x0 DUP2 MLOAD SWAP1 POP PUSH2 0x1040 DUP2 PUSH2 0xEDA JUMP JUMPDEST SWAP3 SWAP2 POP POP JUMP JUMPDEST PUSH1 0x0 PUSH1 0x20 DUP3 DUP5 SUB SLT ISZERO PUSH2 0x105C JUMPI PUSH2 0x105B PUSH2 0xEA3 JUMP JUMPDEST JUMPDEST PUSH1 0x0 PUSH2 0x106A DUP5 DUP3 DUP6 ADD PUSH2 0x1031 JUMP JUMPDEST SWAP2 POP POP SWAP3 SWAP2 POP POP JUMP JUMPDEST PUSH1 0x0 PUSH10 0xFFFFFFFFFFFFFFFFFFFF DUP3 AND SWAP1 POP SWAP2 SWAP1 POP JUMP JUMPDEST PUSH2 0x1092 DUP2 PUSH2 0x1073 JUMP JUMPDEST DUP2 EQ PUSH2 0x109D JUMPI PUSH1 0x0 DUP1 REVERT JUMPDEST POP JUMP JUMPDEST PUSH1 0x0 DUP2 MLOAD SWAP1 POP PUSH2 0x10AF DUP2 PUSH2 0x1089 JUMP JUMPDEST SWAP3 SWAP2 POP POP JUMP JUMPDEST PUSH1 0x0 DUP2 SWAP1 POP SWAP2 SWAP1 POP JUMP JUMPDEST PUSH2 0x10C8 DUP2 PUSH2 0x10B5 JUMP JUMPDEST DUP2 EQ PUSH2 0x10D3 JUMPI PUSH1 0x0 DUP1 REVERT JUMPDEST POP JUMP JUMPDEST PUSH1 0x0 DUP2 MLOAD SWAP1 POP PUSH2 0x10E5 DUP2 PUSH2 0x10BF JUMP JUMPDEST SWAP3 SWAP2 POP POP JUMP JUMPDEST PUSH1 0x0 DUP2 MLOAD SWAP1 POP PUSH2 0x10FA DUP2 PUSH2 0xF10 JUMP JUMPDEST SWAP3 SWAP2 POP POP JUMP JUMPDEST PUSH1 0x0 DUP1 PUSH1 0x0 DUP1 PUSH1 0x0 PUSH1 0xA0 DUP7 DUP9 SUB SLT ISZERO PUSH2 0x111C JUMPI PUSH2 0x111B PUSH2 0xEA3 JUMP JUMPDEST JUMPDEST PUSH1 0x0 PUSH2 0x112A DUP9 DUP3 DUP10 ADD PUSH2 0x10A0 JUMP JUMPDEST SWAP6 POP POP PUSH1 0x20 PUSH2 0x113B DUP9 DUP3 DUP10 ADD PUSH2 0x10D6 JUMP JUMPDEST SWAP5 POP POP PUSH1 0x40 PUSH2 0x114C DUP9 DUP3 DUP10 ADD PUSH2 0x10EB JUMP JUMPDEST SWAP4 POP POP PUSH1 0x60 PUSH2 0x115D DUP9 DUP3 DUP10 ADD PUSH2 0x10EB JUMP JUMPDEST SWAP3 POP POP PUSH1 0x80 PUSH2 0x116E DUP9 DUP3 DUP10 ADD PUSH2 0x10A0 JUMP JUMPDEST SWAP2 POP POP SWAP3 SWAP6 POP SWAP3 SWAP6 SWAP1 SWAP4 POP JUMP JUMPDEST PUSH1 0x0 DUP3 DUP3 MSTORE PUSH1 0x20 DUP3 ADD SWAP1 POP SWAP3 SWAP2 POP POP JUMP JUMPDEST PUSH32 0x4F6E6C79207468652073656C6C65722063616E207472616E7366657220746865 PUSH1 0x0 DUP3 ADD MSTORE PUSH32 0x204E46542E000000000000000000000000000000000000000000000000000000 PUSH1 0x20 DUP3 ADD MSTORE POP JUMP JUMPDEST PUSH1 0x0 PUSH2 0x11E8 PUSH1 0x25 DUP4 PUSH2 0x117B JUMP JUMPDEST SWAP2 POP PUSH2 0x11F3 DUP3 PUSH2 0x118C JUMP JUMPDEST PUSH1 0x40 DUP3 ADD SWAP1 POP SWAP2 SWAP1 POP JUMP JUMPDEST PUSH1 0x0 PUSH1 0x20 DUP3 ADD SWAP1 POP DUP2 DUP2 SUB PUSH1 0x0 DUP4 ADD MSTORE PUSH2 0x1217 DUP2 PUSH2 0x11DB JUMP JUMPDEST SWAP1 POP SWAP2 SWAP1 POP JUMP JUMPDEST PUSH32 0x526563697069656E7420616464726573732063616E6E6F74206265207A65726F PUSH1 0x0 DUP3 ADD MSTORE PUSH32 0x2E00000000000000000000000000000000000000000000000000000000000000 PUSH1 0x20 DUP3 ADD MSTORE POP JUMP JUMPDEST PUSH1 0x0 PUSH2 0x127A PUSH1 0x21 DUP4 PUSH2 0x117B JUMP JUMPDEST SWAP2 POP PUSH2 0x1285 DUP3 PUSH2 0x121E JUMP JUMPDEST PUSH1 0x40 DUP3 ADD SWAP1 POP SWAP2 SWAP1 POP JUMP JUMPDEST PUSH1 0x0 PUSH1 0x20 DUP3 ADD SWAP1 POP DUP2 DUP2 SUB PUSH1 0x0 DUP4 ADD MSTORE PUSH2 0x12A9 DUP2 PUSH2 0x126D JUMP JUMPDEST SWAP1 POP SWAP2 SWAP1 POP JUMP JUMPDEST PUSH1 0x0 PUSH1 0x60 DUP3 ADD SWAP1 POP PUSH2 0x12C5 PUSH1 0x0 DUP4 ADD DUP7 PUSH2 0xFCF JUMP JUMPDEST PUSH2 0x12D2 PUSH1 0x20 DUP4 ADD DUP6 PUSH2 0xFCF JUMP JUMPDEST PUSH2 0x12DF PUSH1 0x40 DUP4 ADD DUP5 PUSH2 0xFDE JUMP JUMPDEST SWAP5 SWAP4 POP POP POP POP JUMP INVALID LOG2 PUSH5 0x6970667358 0x22 SLT KECCAK256 0xAB SWAP8 LOG3 PUSH26 0x1F53F85BB1D699DE7621FD0FEE0115CE3AB9F49EB2BAF997BF9C 0xC2 0xB5 PUSH5 0x736F6C6343 STOP ADDMOD GT STOP CALLER "},"methodIdentifiers":{"stake(address,uint256)":"adc9772e","transferNFT(address,uint256,address)":"d2f0922a"}}}}}