{
  "_format": "hh-sol-artifact-1",
  "contractName": "SolidityFile6",
  "sourceName": "contracts/solidityfile6.sol",
  "abi": [
    {
      "inputs": [
        {
          "internalType": "address",
          "name": "nftFloorPriceConsumerAddress",
          "type": "address"
        }
      ],
      "stateMutability": "nonpayable",
      "type": "constructor"
    },
    {
      "inputs": [
        {
          "internalType": "address",
          "name": "nftAddress",
          "type": "address"
        },
        {
          "internalType": "uint256",
          "name": "tokenId",
          "type": "uint256"
        }
      ],
      "name": "AlreadyStaked",
      "type": "error"
    },
    {
      "inputs": [
        {
          "internalType": "address",
          "name": "nftAddress",
          "type": "address"
        },
        {
          "internalType": "uint256",
          "name": "tokenId",
          "type": "uint256"
        }
      ],
      "name": "NftNotStaked",
      "type": "error"
    },
    {
      "inputs": [],
      "name": "NotApprovedForStaking",
      "type": "error"
    },
    {
      "inputs": [],
      "name": "NotOwner",
      "type": "error"
    },
    {
      "anonymous": false,
      "inputs": [
        {
          "indexed": true,
          "internalType": "address",
          "name": "seller",
          "type": "address"
        },
        {
          "indexed": true,
          "internalType": "address",
          "name": "nftAddress",
          "type": "address"
        },
        {
          "indexed": true,
          "internalType": "uint256",
          "name": "tokenId",
          "type": "uint256"
        },
        {
          "indexed": false,
          "internalType": "uint256",
          "name": "floorPrice",
          "type": "uint256"
        }
      ],
      "name": "ItemStaked",
      "type": "event"
    },
    {
      "anonymous": false,
      "inputs": [
        {
          "indexed": true,
          "internalType": "address",
          "name": "from",
          "type": "address"
        },
        {
          "indexed": true,
          "internalType": "address",
          "name": "to",
          "type": "address"
        },
        {
          "indexed": true,
          "internalType": "address",
          "name": "nftAddress",
          "type": "address"
        },
        {
          "indexed": false,
          "internalType": "uint256",
          "name": "tokenId",
          "type": "uint256"
        }
      ],
      "name": "ItemTransferred",
      "type": "event"
    },
    {
      "inputs": [
        {
          "internalType": "address",
          "name": "nftAddress",
          "type": "address"
        },
        {
          "internalType": "uint256",
          "name": "tokenId",
          "type": "uint256"
        }
      ],
      "name": "stake",
      "outputs": [],
      "stateMutability": "nonpayable",
      "type": "function"
    },
    {
      "inputs": [
        {
          "internalType": "address",
          "name": "nftAddress",
          "type": "address"
        },
        {
          "internalType": "uint256",
          "name": "tokenId",
          "type": "uint256"
        },
        {
          "internalType": "address",
          "name": "recipient",
          "type": "address"
        }
      ],
      "name": "transferNFT",
      "outputs": [],
      "stateMutability": "nonpayable",
      "type": "function"
    }
  ],
  "bytecode": "0x60806040523480156200001157600080fd5b506040516200148338038062001483833981810160405281019062000037919062000124565b6200005367533595c3ea08bad860c01b620000b760201b60201c565b6200006f67d40382c81567004e60c01b620000b760201b60201c565b80600160006101000a81548173ffffffffffffffffffffffffffffffffffffffff021916908373ffffffffffffffffffffffffffffffffffffffff1602179055505062000156565b50565b600080fd5b600073ffffffffffffffffffffffffffffffffffffffff82169050919050565b6000620000ec82620000bf565b9050919050565b620000fe81620000df565b81146200010a57600080fd5b50565b6000815190506200011e81620000f3565b92915050565b6000602082840312156200013d576200013c620000ba565b5b60006200014d848285016200010d565b91505092915050565b61131d80620001666000396000f3fe608060405234801561001057600080fd5b50600436106100365760003560e01c8063adc9772e1461003b578063d2f0922a14610057575b600080fd5b61005560048036038101906100509190610f3c565b610073565b005b610071600480360381019061006c9190610f7c565b610837565b005b61008767afff2a7d429bdcf260c01b610ea0565b818161009d67f9b1b00c87416c6f60c01b610ea0565b6100b167b9a15d0b0b71347b60c01b610ea0565b6100c56719558c87db571e3e60c01b610ea0565b60008060008473ffffffffffffffffffffffffffffffffffffffff1673ffffffffffffffffffffffffffffffffffffffff1681526020019081526020016000206000838152602001908152602001600020604051806040016040529081600082015481526020016001820160009054906101000a900473ffffffffffffffffffffffffffffffffffffffff1673ffffffffffffffffffffffffffffffffffffffff1673ffffffffffffffffffffffffffffffffffffffff168152505090506101976723b00afbfe2f443960c01b610ea0565b6101ab67af45e1cff0ab531360c01b610ea0565b60008160000151111561021f576101cc673448001e6a26514860c01b610ea0565b6101e067f9b68366d5130d4460c01b610ea0565b82826040517f664cdb5f000000000000000000000000000000000000000000000000000000008152600401610216929190610fed565b60405180910390fd5b6102336715d51262f496bbbd60c01b610ea0565b6102476794eed6f2177c256260c01b610ea0565b61025b67e536dc503fa1b0df60c01b610ea0565b61026f678e596582b94dc6ce60c01b610ea0565b8484610285678813b1d818def93f60c01b610ea0565b61029967fd2ad0e392920c9560c01b610ea0565b6102ad675def48693c6ba14560c01b610ea0565b60008290506102c667126873bee223a8ca60c01b610ea0565b6102da67bfe1b20871f6d14c60c01b610ea0565b60008173ffffffffffffffffffffffffffffffffffffffff16636352211e846040518263ffffffff1660e01b81526004016103159190611016565b602060405180830381865afa158015610332573d6000803e3d6000fd5b505050506040513d601f19601f820116820180604052508101906103569190611046565b905061036c67e617ee0f31aa7b7760c01b610ea0565b610380673efa1f7bc5eaf8fc60c01b610ea0565b8073ffffffffffffffffffffffffffffffffffffffff163373ffffffffffffffffffffffffffffffffffffffff161461040d576103c7674f4e16a6fea7101460c01b610ea0565b6103db671eafe2dae004141960c01b610ea0565b6040517f30cd747100000000000000000000000000000000000000000000000000000000815260040160405180910390fd5b61042167ee1229b6cf90727860c01b610ea0565b610435675e11336d1eccf44060c01b610ea0565b61044866e0f7460bfe198160c01b610ea0565b61045c67a2337f4324b4bc4560c01b610ea0565b610470672fdab195ecc1fe8f60c01b610ea0565b61048467c45ded713250cf9060c01b610ea0565b600089905061049d67d4239de9187cb52160c01b610ea0565b6104b167ca193c563593edcb60c01b610ea0565b3073ffffffffffffffffffffffffffffffffffffffff168173ffffffffffffffffffffffffffffffffffffffff1663081812fc8b6040518263ffffffff1660e01b81526004016105019190611016565b602060405180830381865afa15801561051e573d6000803e3d6000fd5b505050506040513d601f19601f820116820180604052508101906105429190611046565b73ffffffffffffffffffffffffffffffffffffffff16146105b757610571670b14b71959958de860c01b610ea0565b610585675c77032d1fa1763b60c01b610ea0565b6040517f95faba0200000000000000000000000000000000000000000000000000000000815260040160405180910390fd5b6105cb679ccdce44fe07549060c01b610ea0565b6105df670294a29a9a8a434060c01b610ea0565b6105f3676cb3f192171f4c1960c01b610ea0565b6000600160009054906101000a900473ffffffffffffffffffffffffffffffffffffffff1673ffffffffffffffffffffffffffffffffffffffff16638e15f4736040518163ffffffff1660e01b815260040160a060405180830381865afa158015610662573d6000803e3d6000fd5b505050506040513d601f19601f820116820180604052508101906106869190611100565b5050509150506106a06792fb5f46d3c6b9d560c01b610ea0565b6106b467c44d122c4f4e9cb460c01b610ea0565b60008190506106cd67a07a2b97afc26b6960c01b610ea0565b60405180604001604052808281526020013373ffffffffffffffffffffffffffffffffffffffff168152506000808e73ffffffffffffffffffffffffffffffffffffffff1673ffffffffffffffffffffffffffffffffffffffff16815260200190815260200160002060008d81526020019081526020016000206000820151816000015560208201518160010160006101000a81548173ffffffffffffffffffffffffffffffffffffffff021916908373ffffffffffffffffffffffffffffffffffffffff1602179055509050506107af670425a40c4d0bbeae60c01b610ea0565b6107c36735e734686fbe513d60c01b610ea0565b8a8c73ffffffffffffffffffffffffffffffffffffffff163373ffffffffffffffffffffffffffffffffffffffff167f5a166ffeabdd418f2b5cc6d348a8b9753c581772f85e9440517e72ee52e597ba846040516108219190611016565b60405180910390a4505050505050505050505050565b61084b67ccb55322ff8f45d260c01b610ea0565b82826108616726a6ca47e701826960c01b610ea0565b61087567129b8df43d86c49b60c01b610ea0565b61088967bd254ac442d0a7bd60c01b610ea0565b60008060008473ffffffffffffffffffffffffffffffffffffffff1673ffffffffffffffffffffffffffffffffffffffff1681526020019081526020016000206000838152602001908152602001600020604051806040016040529081600082015481526020016001820160009054906101000a900473ffffffffffffffffffffffffffffffffffffffff1673ffffffffffffffffffffffffffffffffffffffff1673ffffffffffffffffffffffffffffffffffffffff1681525050905061095b67b91a88200a1e9f5360c01b610ea0565b61096f675654258b051bb44b60c01b610ea0565b60008160000151036109e25761098f67553438b50baf2c7960c01b610ea0565b6109a3675dc694f663e2d7ef60c01b610ea0565b82826040517f2858b5c90000000000000000000000000000000000000000000000000000000081526004016109d9929190610fed565b60405180910390fd5b6109f6676fa750f0c5becd9c60c01b610ea0565b610a0a67c33baf626140b54760c01b610ea0565b610a1e6730069612dd4b5c2e60c01b610ea0565b610a32678365f7bc1119e31a60c01b610ea0565b610a4667903aead3c713280360c01b610ea0565b610a5a67bf715e63b83097b160c01b610ea0565b6000869050610a7367a4cd1c8fd618ff8960c01b610ea0565b610a876763c5d0acc5f06ccc60c01b610ea0565b60008060008973ffffffffffffffffffffffffffffffffffffffff1673ffffffffffffffffffffffffffffffffffffffff1681526020019081526020016000206000888152602001908152602001600020604051806040016040529081600082015481526020016001820160009054906101000a900473ffffffffffffffffffffffffffffffffffffffff1673ffffffffffffffffffffffffffffffffffffffff1673ffffffffffffffffffffffffffffffffffffffff16815250509050610b5967b0c34437019e931360c01b610ea0565b610b6d67fbd74bf68e71b29260c01b610ea0565b610b8167288b7759eb72df2c60c01b610ea0565b806020015173ffffffffffffffffffffffffffffffffffffffff163373ffffffffffffffffffffffffffffffffffffffff1614610bf3576040517f08c379a0000000000000000000000000000000000000000000000000000000008152600401610bea906111fe565b60405180910390fd5b610c0767aba41615159f1fb760c01b610ea0565b610c1b678704746833186e5460c01b610ea0565b610c2f67a520eb6f7365152d60c01b610ea0565b610c4367e9b612c80a0143b560c01b610ea0565b600073ffffffffffffffffffffffffffffffffffffffff168673ffffffffffffffffffffffffffffffffffffffff1603610cb2576040517f08c379a0000000000000000000000000000000000000000000000000000000008152600401610ca990611290565b60405180910390fd5b610cc6670d5c5b742d0c768660c01b610ea0565b610cda67bfbf184c759274c960c01b610ea0565b610cee6708195aba946be5d960c01b610ea0565b8173ffffffffffffffffffffffffffffffffffffffff166342842e0e30888a6040518463ffffffff1660e01b8152600401610d2b939291906112b0565b600060405180830381600087803b158015610d4557600080fd5b505af1158015610d59573d6000803e3d6000fd5b50505050610d7167d58f0639832fbfc760c01b610ea0565b6000808973ffffffffffffffffffffffffffffffffffffffff1673ffffffffffffffffffffffffffffffffffffffff16815260200190815260200160002060008881526020019081526020016000206000808201600090556001820160006101000a81549073ffffffffffffffffffffffffffffffffffffffff02191690555050610e06677eb0cec79510f31060c01b610ea0565b610e1a67e4d58860ea07d1ae60c01b610ea0565b8773ffffffffffffffffffffffffffffffffffffffff168673ffffffffffffffffffffffffffffffffffffffff163073ffffffffffffffffffffffffffffffffffffffff167f56e49b3ccaea8ae6086bfe6ee22dd37852c58a4e400b1bac951c614ce306e5308a604051610e8e9190611016565b60405180910390a45050505050505050565b50565b600080fd5b600073ffffffffffffffffffffffffffffffffffffffff82169050919050565b6000610ed382610ea8565b9050919050565b610ee381610ec8565b8114610eee57600080fd5b50565b600081359050610f0081610eda565b92915050565b6000819050919050565b610f1981610f06565b8114610f2457600080fd5b50565b600081359050610f3681610f10565b92915050565b60008060408385031215610f5357610f52610ea3565b5b6000610f6185828601610ef1565b9250506020610f7285828601610f27565b9150509250929050565b600080600060608486031215610f9557610f94610ea3565b5b6000610fa386828701610ef1565b9350506020610fb486828701610f27565b9250506040610fc586828701610ef1565b9150509250925092565b610fd881610ec8565b82525050565b610fe781610f06565b82525050565b60006040820190506110026000830185610fcf565b61100f6020830184610fde565b9392505050565b600060208201905061102b6000830184610fde565b92915050565b60008151905061104081610eda565b92915050565b60006020828403121561105c5761105b610ea3565b5b600061106a84828501611031565b91505092915050565b600069ffffffffffffffffffff82169050919050565b61109281611073565b811461109d57600080fd5b50565b6000815190506110af81611089565b92915050565b6000819050919050565b6110c8816110b5565b81146110d357600080fd5b50565b6000815190506110e5816110bf565b92915050565b6000815190506110fa81610f10565b92915050565b600080600080600060a0868803121561111c5761111b610ea3565b5b600061112a888289016110a0565b955050602061113b888289016110d6565b945050604061114c888289016110eb565b935050606061115d888289016110eb565b925050608061116e888289016110a0565b9150509295509295909350565b600082825260208201905092915050565b7f4f6e6c79207468652073656c6c65722063616e207472616e736665722074686560008201527f204e46542e000000000000000000000000000000000000000000000000000000602082015250565b60006111e860258361117b565b91506111f38261118c565b604082019050919050565b60006020820190508181036000830152611217816111db565b9050919050565b7f526563697069656e7420616464726573732063616e6e6f74206265207a65726f60008201527f2e00000000000000000000000000000000000000000000000000000000000000602082015250565b600061127a60218361117b565b91506112858261121e565b604082019050919050565b600060208201905081810360008301526112a98161126d565b9050919050565b60006060820190506112c56000830186610fcf565b6112d26020830185610fcf565b6112df6040830184610fde565b94935050505056fea2646970667358221220ab97a3791f53f85bb1d699de7621fd0fee0115ce3ab9f49eb2baf997bf9cc2b564736f6c63430008110033",
  "linkReferences": {},
  "deployedLinkReferences": {}
}